{
  "contractName": "TrushangTokenSale",
  "abi": [
    {
      "inputs": [
        {
          "internalType": "contract TrushangToken",
          "name": "_tokenContract",
          "type": "address"
        },
        {
          "internalType": "uint256",
          "name": "_tokenPrice",
          "type": "uint256"
        }
      ],
      "stateMutability": "nonpayable",
      "type": "constructor"
    },
    {
      "inputs": [],
      "name": "tokenContract",
      "outputs": [
        {
          "internalType": "contract TrushangToken",
          "name": "",
          "type": "address"
        }
      ],
      "stateMutability": "view",
      "type": "function",
      "constant": true
    },
    {
      "inputs": [],
      "name": "tokenPrice",
      "outputs": [
        {
          "internalType": "uint256",
          "name": "",
          "type": "uint256"
        }
      ],
      "stateMutability": "view",
      "type": "function",
      "constant": true
    }
  ],
  "bytecode": "0x608060405234801561001057600080fd5b5060405161032d38038061032d833981810160405281019061003291906100eb565b336000806101000a81548173ffffffffffffffffffffffffffffffffffffffff021916908373ffffffffffffffffffffffffffffffffffffffff16021790555081600160006101000a81548173ffffffffffffffffffffffffffffffffffffffff021916908373ffffffffffffffffffffffffffffffffffffffff1602179055508060028190555050506101a3565b6000815190506100d081610175565b92915050565b6000815190506100e58161018c565b92915050565b600080604083850312156100fe57600080fd5b600061010c858286016100c1565b925050602061011d858286016100d6565b9150509250929050565b60006101328261014b565b9050919050565b600061014482610127565b9050919050565b600073ffffffffffffffffffffffffffffffffffffffff82169050919050565b6000819050919050565b61017e81610139565b811461018957600080fd5b50565b6101958161016b565b81146101a057600080fd5b50565b61017b806101b26000396000f3fe608060405234801561001057600080fd5b50600436106100365760003560e01c806355a373d61461003b5780637ff9b59614610059575b600080fd5b610043610077565b60405161005091906100c1565b60405180910390f35b61006161009d565b60405161006e91906100dc565b60405180910390f35b600160009054906101000a900473ffffffffffffffffffffffffffffffffffffffff1681565b60025481565b6100ac81610121565b82525050565b6100bb81610117565b82525050565b60006020820190506100d660008301846100a3565b92915050565b60006020820190506100f160008301846100b2565b92915050565b600073ffffffffffffffffffffffffffffffffffffffff82169050919050565b6000819050919050565b600061012c82610133565b9050919050565b600061013e826100f7565b905091905056fea264697066735822122061f6d7ff766829c44c69a06eaf77fcc489315db2132084edfe4f0afd58d8fccd64736f6c63430008000033",
  "immutableReferences": {},
  "source": "// SPDX-License-Identifier: MIT \r\npragma solidity ^0.8.0;\r\n\r\nimport \"./TrushangToken.sol\";\r\n\r\ncontract TrushangTokenSale {\r\n    address admin;\r\n    TrushangToken public tokenContract;\r\n    uint256 public tokenPrice;\r\n\r\n    constructor(TrushangToken _tokenContract,uint256 _tokenPrice) {\r\n        //Assign an admin\r\n        admin = msg.sender;\r\n        //Token Contract\r\n        tokenContract = _tokenContract;\r\n        //Token Price\r\n        tokenPrice = _tokenPrice;\r\n\r\n    }\r\n}",
  "sourcePath": "C:\\Users\\HP\\Desktop\\SEM-6\\BT\\Practical-3\\token_sale\\contracts\\TrushangTokenSale.sol",
  "compiler": {
    "name": "solc",
    "version": "0.8.0+commit.c7dfd78e.Emscripten.clang"
  },
  "schemaVersion": "3.4.16",
  "updatedAt": "2025-02-28T06:59:31.417Z",
  "networkType": "ethereum",
  "devdoc": {
    "kind": "dev",
    "methods": {},
    "version": 1
  },
  "userdoc": {
    "kind": "user",
    "methods": {},
    "version": 1
  }
}